:1000000000EE00F0A60EEE6AE806FDE101EE00F05B
:10001000800EEE6AE806FDE10FEE00F0800EEE6A5B
:0C002000E806FDE1000EF86E4AEF7BF0F0
:10E9D6009EA8FED71BC2ADFF1200020134513511AD
:10E9E600361102E0800E361B120002010CAF120037
:10E9F6000BC20DF20CC20EF20D1F0E1F0D4B0E2B8D
:10EA06000DC20BF20EC20CF21200800E0201291B7F
:10EA160027C231F228C232F229C233F224C22EF2C0
:10EA260025C22FF226C230F298EC7AF02EC224F2DA
:10EA36002FC225F230C226F212000201326B336B6E
:10EA460002012EA105D00201305132273151332364
:10EA5600D890020130373137D8902F332E332F51CB
:10EA66002E11EEE132C22EF233C22FF2120021C273
:10EA760031F222C232F223C233F21FC2E9FF20C2B0
:10EA8600EAFFEECF2EF2EECF2FF20201EDCF30F2FB
:10EA96009AEC78F01FC2E9FF20C2EAFF2EC2EEFF11
:10EAA6002FC2EEFF30C2EDFF120021C227F222C2B2
:10EAB60028F223C229F21FC2E9FF20C2EAFFEECFE5
:10EAC60024F2EECF25F20201EDCF26F208EC75F026
:10EAD6001FC2E9FF20C2EAFF24C2EEFF25C2EEFFF5
:10EAE60026C2EDFF120002011E511D111DE0206F0E
:10EAF600010E1F6F205102011EBF06D0D8900201E1
:10EB06001D371E371F2BF7D702011D511B5D1E51E6
:10EB16001C5904E31D511B5F1E511C5BD89002015A
:10EB26001E331D331F2FF0D712000201206B216BFD
:10EB3600226B236B020118A109D002011C51202768
:10EB46001D5121231E5122231F512323D890020138
:10EB56001C371D371E371F37D8901B331A3319330E
:10EB660018331B51181119111A11E4E120C218F2B9
:10EB760021C219F222C21AF223C21BF212000201AA
:10EB8600206B216B1E511D1121E0226F010E1F6F9C
:10EB9600225102011EBF06D0D89002011D371E3732
:10EBA6001F2BF7D7D8900201203721371D511B5D47
:10EBB6001E511C5905E31D511B5F1E511C5B208114
:10EBC600D89002011E331D331F2FECD720C21BF233
:10EBD60021C21CF21200020129AF0ED02D6B2E6B42
:10EBE600800E2F6F020127512D5D276F28512E5958
:10EBF600286F29512F59296F0201000E2CAF0FD013
:10EC06002D6B2E6B800E2F6F02012A512D5D2A6F00
:10EC16002B512E592B6F2C512F592C6F000E0201A0
:10EC2600271B800E291B2C1B2A51275D2B51285987
:10EC36002C5129591200020127512811291107E1E7
:10EC46002AC2E9FF2BC2EAFFEE6AED6A000C020156
:10EC560029517F0B2C6FD8902C352D6F2E6B2E37AC
:10EC66002AC2E9FF2BC2EAFF2DC2EEFF2EC2EDFF3C
:10EC76002835E836010B2C6F2C512AC2E9FF2BC22E
:10EC8600EAFFEE12000EED122AC2E9FF2BC2EAFFDE
:10EC9600820EEE26FF0EED222981298329852987FA
:10ECA6002989298B299D0B000E00289FFF0C020144
:10ECB6000C510B1104E10B6B0C6B0D6B000C0BC2B2
:10ECC6000EF20CC20FF20201106B0FBF10070CAF51
:10ECD60007D00201101F0F1F0E6D000E0F23102309
:10ECE6000201116F8E0E3D6F11510E0E3B6F020E1B
:10ECF6003C6F7BEC79F002010CAF0ED00EC234F201
:10ED06000FC235F210C236F2F0EC74F034C20EF2D5
:10ED160035C20FF236C210F20EC20BF20FC20CF25F
:10ED260010C20DF212003BC2E9FF3CC2EAFF010E1F
:10ED3600EB34020EEB3402013F6F3DC2E9FF3EC2E7
:10ED4600EAFF3FC2EFFF3F6708D03BC2E9FF3CC284
:10ED5600EAFFEE6AEE6AED6A000C0201406F3F6B55
:10ED660040513BC2E9FF3CC2EAFF010EEB8E3BC2BB
:10ED7600E9FF3CC2EAFFEECF40F2EECF41F2EECF22
:10ED860042F242AF02D002013F2B3BC2E9FF3CC236
:10ED9600EAFFFF0EEE16EE16000EED1602013F51CB
:10EDA60012000201206F1C6B20511BAF09D002011B
:10EDB6001A6D1B1FD8B01B2B206F010E1C6F205124
:10EDC600020119AF07D00201186D191FD8B0192B0F
:10EDD600010E1C1B02011E6B1F6B1B511A1121E039
:10EDE600206F010E1D6F205102011BBF06D0D89067
:10EDF60002011A371B371D2BF7D7D89002011E3791
:10EE06001F371A51185D1B51195905E31A51185F1E
:10EE16001B51195B1E81D89002011B331A331D2F1B
:10EE2600ECD702011C5104E01E6D1F1FD8B01F2B2A
:10EE36001EC218F21FC219F212002C0E02013D6FFB
:10EE4600020E3E6F270E3B6F020E3C6F96EC76F07D
:10EE560002012B6F27512D6F28512E6F29512F6FCD
:10EE6600306B8E0E2C5F2CAF13D002012C51800A12
:10EE76008F0F05E2276B286B296B2A6B000CD89045
:10EE8600020130332F332E332D332C3FF8D713D0D6
:10EE96001F0E02012C650CD0276B286B296B2A6B81
:10EEA600000CD89002012D372E372F3730372C071C
:10EEB60002012C67F6D702012B5108E0301F2F1FE5
:10EEC6002E1F2D6D000E2E232F2330232DC227F249
:10EED6002EC228F22FC229F230C22AF212000201F3
:10EEE6002A5127112811291104E1276B286B296B58
:10EEF600000C0201306F2B6B30512AAF0DD002018E
:10EF06002A1F291F281F276D000E282329232A239D
:10EF1600306B010E2B6F30510201306F8E0E2C6F4D
:10EF260030510201306B316B326B2A51336F3351E2
:10EF360030113111321107E0D8902A3329332833A2
:10EF460027332C2BEED727C22DF228C22EF229C248
:10EF56002FF22CC23DF22D0E02013B6F020E3C6FCA
:10EF66007BEC79F002012B510EE02DC234F22EC259
:10EF760035F22FC236F2F0EC74F034C22DF235C2FF
:10EF86002EF236C22FF22DC227F22EC228F22FC23F
:10EF960029F212000201296B2A6B2B6B270E3D6F9B
:10EFA600020E3E6F1F0E3B6F020E3C6F96EC76F024
:10EFB6000201266F276707D029C21FF22AC220F254
:10EFC6002BC221F21200250E02013D6F020E3E6F8A
:10EFD600220E3B6F020E3C6F96EC76F00201286F14
:10EFE600256707D029C21FF22AC220F22BC221F2BE
:10EFF600120002012551890F275F2851261B2C6F0D
:10F00600180E286F2C51D890020129372A372B3732
:10F0160022511F5D235120592451215907E32251C2
:10F026001F5F2351205B2451215B2981D890020167
:10F036001F3720372137282FE6D727C23DF2290E62
:10F046003B6F020E3C6F7BEC79F00201265101E02A
:10F056002B8F29C21FF22AC220F22BC221F21200E4
:10F0660002012451030DF3502225296FE86AF3BEED
:10F07600E86823212A6F29C2F6FF2AC2F7FF090092
:10F08600F5CF2BF20900F5CF2CF20900F5CF2DF2C2
:10F096002BC226F22CC227F22DC228F202012551DC
:10F0A60024113EE026C231F227C232F228C233F2E0
:10F0B6001FC22EF220C22FF221C230F29AEC78F053
:10F0C6002EC22EF22FC22FF230C230F202012407D6
:10F0D600D8A025072451030DF3502225296FE86A8D
:10F0E600F3BEE86823212A6F29C2F6FF2AC2F7FF7A
:10F0F6000900F5CF2BF20900F5CF2CF20900F5CF68
:10F106002DF22BC231F22CC232F22DC233F298EC20
:10F116007AF02EC226F22FC227F230C228F2BED7CC
:10F1260026C21FF227C220F228C221F212000201D3
:10F13600376B386B396B350E3D6F020E3E6F2E0EF8
:10F146003B6F020E3C6F96EC76F00201346F360E82
:10F156003D6F020E3E6F310E3B6F020E3C6F96EC1A
:10F1660076F00201341B365102E0356707D037C20C
:10F176002EF238C22FF239C230F212000201365195
:10F186007B0F35273A6F070E366F3A5102012EA1D3
:10F1960007D00201315137273251382333513923F1
:10F1A600D890020130332F332E33D890313732378F
:10F1B6003337362FEBD73A6F090E366F3A510201C5
:10F1C6002EA107D00201315137273251382333514E
:10F1D6003923D890020130332F332E33D890393368
:10F1E60038333733362FEBD735C23DF2370E3B6F08
:10F1F600020E3C6F7BEC79F00201345101E0398F4D
:10F2060037C22EF238C22FF239C230F21200220E65
:10F2160002012A6F020E2B6F1FC227F220C228F2AC
:10F2260021C229F21EEC76F0020123AF17D00201AB
:10F236002151800A800F05E1000E205D02E1000EDB
:10F246001F5D07E202011F6B800E206FBF0E216F4C
:10F25600BF0C02011F6B206B216B000C150E020107
:10F26600225D000E235901E312001FC227F220C2BD
:10F2760028F221C229F220EC77F027C227F228C211
:10F2860028F229C229F22AC22AF272EC77F027C2A2
:10F2960024F228C225F229C226F224C22AF225C265
:10F2A6002BF226C22CF21FC227F220C228F221C25C
:10F2B60029F2EEEC75F015E20201316B800E326F29
:10F2C600BF0E336F24C22EF225C22FF226C230F2B1
:10F2D60098EC7AF02EC21FF22FC220F230C221F231
:10F2E600120024C21FF225C220F226C221F2120009
:10F2F60002013D513BC2E9FF08E03CC2EAFFEE5085
:10F30600EE10ED1014E13BC2E9FF3CC2EAFFEE6AE3
:10F31600EE6AED6A000C02013D2B3BC2E9FF3CC2DE
:10F32600EAFFEC52EC52D890ED32ED32EF323BC2AE
:10F33600E9FF3CC2EAFFEE52EE52FE0EED1415E076
:10F34600EAD702013D2B3BC2E9FF3CC2EAFFEE2AA7
:10F35600000EEE22ED223BC2E9FF3CC2EAFFEC5270
:10F36600EC52D890ED32ED32EF323BC2E9FF3CC2AF
:10F37600EAFFEE52EE52FF0EED140BE0E2D7020169
:10F386003D073BC2E9FF3CC2EAFFD890EE36EE36B7
:10F39600ED363BC2E9FF3CC2EAFFEECF3EF2EECFCE
:10F3A6003FF2EECF40F202013FAFE9D702013DB195
:10F3B6000AD03BC2E9FF3CC2EAFFFF0EEE167F0E03
:10F3C600EE16FF0EED160201D8903D333D51406F0B
:10F3D6003F6B3E6B3BC2E9FF3CC2EAFF3E51EE1279
:10F3E6003F51EE124051ED1212000D0E0201126F46
:10F3F600020E136F8DD002011151250A05E011C2CC
:10F406001BF2EBEC74F084D00201196F106B1951EA
:10F4160002D0120011D00BC2F6FF0CC2F7FF020198
:10F426000B4B0C2B0800F5CF11F21151F2E0640AD8
:10F43600F1E00D0AEFE06CD012C2E9FF13C2EAFF59
:10F44600020E02011227000E1323EECF14F2EDCFA7
:10F4560015F215AF07D0030E02011013146D151F18
:10F46600D8B0152B0201196F010E116F1951020147
:10F476001151050A15E01151020DEF0EF324F66E37
:10F48600F76AFF0EF7220900F5CF19F20900F5CF4A
:10F496001AF21951145D1A51155902E3112BE7D7C7
:10F4A60002011051030B06E0196F2D0E1B6F195147
:10F4B600EBEC74F011C20FF202010F070F2928E0DE
:10F4C6000F51020DEF0EF324F66EF76AFF0EF722C8
:10F4D6000900F5CF1DF20A00F5CF1EF214C21BF289
:10F4E60015C21CF2C2EC75F01BC21BF21CC21CF248
:10F4F6000A0E02011D6F000E1E6B76EC75F00201FE
:10F506001B51300F116F11C21BF2EBEC74F0D4D704
:10F516000BC2F6FF0CC2F7FF02010B4B0C2B0800C7
:10F52600F5CF11F2116767D71200380E02013D6F51
:10F53600020E3E6F2E0E3B6F020E3C6F96EC76F07F
:10F546000201366F386707D031C22EF232C22FF26F
:10F5560033C230F21200370E02013D6F020E3E6FCB
:10F56600310E3B6F020E3C6F96EC76F00201346F63
:10F5760037517EE0396F060E356F39513751386194
:10F5860026D03851375D396F190E395D09E3000E03
:10F596002E6F2F6F306F37C238F234C236F23CD03E
:10F5A600D890020131373237333737073751381998
:10F5B60009E0352FF5D706D0D890020130332F3326
:10F5C6002E33382B020137513863F6D725D0020186
:10F5D6003851371921E03751385D396F190E395DC9
:10F5E60005E3000E316F326F336F16D0D8900201EB
:10F5F6002E372F37303738073751381909E0352F6E
:10F60600F5D706D0D8900201333332333133372B56
:10F61600020137513863F6D70201365107E02E1F33
:10F626002F1F301F2E2B000E2F23302302013451A3
:10F6360007E0311F321F331F312B000E32233323D5
:10F646000201396F366B395131512E2732512F2332
:10F656003351302330AF0CD002012E1F2F1F301F25
:10F666002E2B000E2F233023396B010E366F3951A6
:10F6760038C23DF22E0E02013B6F020E3C6F7BEC50
:10F6860079F00201365102E0800E301B120095908F
:10F696008380948E948C0201046F810EAF6E0451A8
:10F6A600900EAB6E0451240EAC6E0451006B016BD0
:10F6B60002010151800A800F400ED8B4005D4CE271
:10F6C60000C20BF201C20CF25AEC76F00BC22EF21B
:10F6D6000CC22FF20DC230F2100E0201316F490E2C
:10F6E600326F3E0E336F9AEC78F02EC20BF22FC2B9
:10F6F6000CF230C20DF21CEC7CF00BC22EF20CC2E6
:10F706002FF20DC230F20201316B326B430E336FB2
:10F716009AEC78F02EC227F22FC228F230C229F2D4
:10F7260020EC77F0D89002010035046F000FE96EE7
:10F73600EA6A0F0EEA2227C2EEFF28C2EDFFD89032
:10F746000035046F000FE96EEA6A010EEA22EE6ADE
:10F75600ED6A004B012BACD79590839028EC7DF099
:10F7660083800201026B036B02010351800A800F42
:10F77600400ED8B4025D5CE2200E1A6F1B6BD89067
:10F786000235046F000FE96EEA6A010EEA22EECF37
:10F7960018F2EDCF19F2D4EC76F018C20BF219C2BA
:10F7A6000CF2F8EC74F00BC205F20CC206F2200E55
:10F7B60002011A6F1B6BD8900235076F000FE96EB6
:10F7C600EA6A0F0EEA22EECF18F2EDCF19F2D4EC68
:10F7D60076F018C20BF219C20CF2F8EC74F00201C2
:10F7E6000B510525086F0C510621096FD89002357B
:10F7F6000A6F160FE96EEA6A000EEA2208C2EEFFE9
:10F8060009C2EDFFD8900235046F160FE96EEA6A59
:10F81600000EEA22EECF0DF2EDCF0EF2F90E0B6FCF
:10F82600FF0E0C6FF8EC79F00201024B032B9CD70C
:10F83600FFD702011E6F176B1E510D51800A800FF4
:10F8460005E1000E0C5D02E1000E0B5D13E20BC23A
:10F8560034F20CC235F20DC236F2F0EC74F034C25A
:10F866000BF235C20CF236C20DF202011E6F010E0A
:10F87600176F1E51FA0E0201216F220E226F3E0EE5
:10F88600236F0B0E1F6F020E206F3AEC75F00BC242
:10F896001FF20CC220F20DC221F20AEC79F01FC24F
:10F8A6000EF220C20FF221C210F20EC221F20FC2D6
:10F8B60022F210C223F20B0E02011F6F020E206FFE
:10F8C60058EC75F00201216B800E226F400E236FFB
:10F8D6000B0E1F6F020E206F3AEC75F00BC22AF268
:10F8E6000CC22BF20DC22CF20201276B286B400EC4
:10F8F600296FEEEC75F013E20201216B226B400ECC
:10F90600236F0B0E1F6F020E206F58EC75F002016D
:10F91600175102E1010E01D0000E0201176F0BC252
:10F926002AF20CC22BF20DC22CF20201276B800EBA
:10F93600286F3F0E296FEEEC75F013E20BC227F22B
:10F946000CC228F20DC229F20201246B256B400E6F
:10F95600266F08EC75F024C20BF225C20CF226C203
:10F966000DF20BC231F20CC232F20DC233F20BC2EF
:10F976002EF20CC22FF20DC230F29AEC78F02EC2A3
:10F986001BF22FC21CF230C21DF2030E0201246FBD
:10F99600256BE30E226FFF0E236F1BC21FF21CC2E4
:10F9A60020F21DC221F233EC78F01FC218F220C2F9
:10F9B60019F221C21AF2040E0201246F256BD40E2D
:10F9C600226FFF0E236F1BC21FF21CC220F21DC244
:10F9D60021F233EC78F01FC214F220C215F221C2D4
:10F9E60016F214C21FF215C220F216C221F218C274
:10F9F60022F219C223F21AC224F2CDEC77F01FC20A
:10FA060011F220C212F221C213F211C221F212C265
:10FA160022F213C223F20B0E02011F6F020E206F99
:10FA26003AEC75F0020117510FE00BC234F20CC22A
:10FA360035F20DC236F2F0EC74F034C20BF235C278
:10FA46000CF236C20DF2120012000C6A0D6A200E7C
:10FA56000A6E0B6A010E026E036A0350800A800F5B
:10FA66003F0ED8B4025C01E38DD00AC008F00BC08B
:10FA760009F00D50800A02010B6F08500C5C09500A
:10FA8600800A0B5915E308500C5C0C6E09500D5892
:10FA96000D6E020E1A6F000E1B6B08C018F209C01D
:10FAA60019F2D4EC76F018C208F019C209F0E1D7C1
:10FAB60008500C2609500D220350800A02010B6FD4
:10FAC6000C50025C0D50800A0B5959E2D890023452
:10FAD6000B6F000FE96EEA6A0F0EEA22EECF06F010
:10FAE600EDCF07F0D8900C340B6F000FE96EEA6A81
:10FAF6000F0EEA22D89002340C6F000FE16EE26A14
:10FB06000F0EE222EECFE6FFEDCFE5FFD8900C34E4
:10FB16000B6F000FE96EEA6A0F0EEA2206C0EEFFCF
:10FB260007C0EDFFD89002340B6F000FE96EEA6A4A
:10FB3600010EEA22EECF04F0EDCF05F0D8900C349A
:10FB46000B6F000FE96EEA6A010EEA22D8900234C2
:10FB56000C6F000FE16EE26A010EE222EECFE6FFC5
:10FB6600EDCFE5FFD8900C340B6F000FE96EEA6A13
:10FB76000101010EEA2204C0EEFF05C0EDFF024AB4
:10FB8600032A6BD7086A096A010E0A6E0B6A026AB3
:10FB9600036A0350800A800F060ED8B4025CD8B000
:10FBA60012000AC008F00BC009F0D8900A340A6E99
:10FBB6000B340B6E0C6A0D6A0D50800A02010B6F36
:10FBC60008500C5C0950800A0B5901E37DD1D8908E
:10FBD60010340B6FD40FF66EF76AFE0EF72209008B
:10FBE600F5CF0CF20900F5CF0DF20CC29EF00DC256
:10FBF6009FF0000E00019FBFFF0EA06FA16FD8906F
:10FC0600103402010B6F540FF66EF76AFF0EF722DF
:10FC16000900F5CF0CF20900F5CF0DF20CC212F077
:10FC26000DC213F0000E13BEFF0E146E156E104AB1
:10FC3600112A0CC00EF00DC00FF00F50800A800F75
:10FC4600400ED8B40E5C01E33CD1070E02010B6FE7
:10FC56009EC01CF29FC01DF2A0C01EF2A1C01FF2E2
:10FC66000E5008240C6FD8900C350D6F000FE96EFE
:10FC7600EA6A0F0EEA22EECF18F2EDCF19F2000E65
:10FC860019BFFF0E1A6F1B6F98EC75F018C20EF2B3
:10FC960019C20FF21AC210F21BC211F212C01CF2E4
:10FCA60013C01DF214C01EF215C01FF20E50082418
:10FCB6000201126FD8901235136F000FE96EEA6ACF
:10FCC600010EEA22EECF18F2EDCF19F2000E19BF9F
:10FCD600FF0E1A6F1B6F98EC75F0020118510E5D3E
:10FCE600146F19510F59156F1A511059166F1B5170
:10FCF6001159176F0201173517331633153314339D
:10FD06000B2FF8D714C206F015C207F0070E0B6FBB
:10FD160012C01CF213C01DF214C01EF215C01FF251
:10FD26000E5008240C6FD8900C350D6F000FE96E3D
:10FD3600EA6A0F0EEA22EECF18F2EDCF19F2000EA4
:10FD460019BFFF0E1A6F1B6F98EC75F018C20EF2F2
:10FD560019C20FF21AC210F21BC211F29EC01CF297
:10FD66009FC01DF2A0C01EF2A1C01FF20E500824B3
:10FD76000201126FD8901235136F000FE96EEA6A0E
:10FD8600010EEA22EECF18F2EDCF19F2000E19BFDE
:10FD9600FF0E1A6F1B6F98EC75F0020118510E25B5
:10FDA600146F19510F21156F1A511021166F1B511F
:10FDB6001121176F02011735173316331533143314
:10FDC6000B2FF8D714C204F015C205F0D8900E34E4
:10FDD6000B6F000FE96EEA6A0F0EEA22EECF0CF205
:10FDE600EDCF0DF206500C5F07500D5B0E50082448
:10FDF6000E6FD8900E350F6F000FE96EEA6A0F0E80
:10FE0600EA220CC2EEFF0DC2EDFFD8900E340B6F46
:10FE1600000FE96EEA6A010EEA22EECF0CF2EDCF90
:10FE26000DF204500C5F05500D5B0E5008240E6F4A
:10FE3600D8900E350F6F000FE96EEA6A010EEA22BE
:10FE46000CC2EEFF0DC2EDFFD8900E340B6F000F03
:10FE5600E96EEA6A0F0EEA22EECF0CF2EDCF0DF252
:10FE660006500C2707500D23D8900E340E6F000F46
:10FE7600E96EEA6A0F0EEA220CC2EEFF0DC2EDFF32
:10FE8600D8900E340B6F000FE96EEA6A010EEA2273
:10FE9600EECF0CF2EDCF0DF204500C2705500D23DA
:10FEA600D8900E340E6F000FE96EEA6A010EEA2250
:10FEB6000CC2EEFF0DC2EDFF0A500E260B500F22AC
:10FEC600BCD60C4A0D2A78D6024A032A62D680008E
:10FED6008000000080005A000000A6FF8000760027
:10FEE6005A0030000000D0FFA6FF8AFF80007D0088
:10FEF60076006A005A004700300018000000E8FF4C
:10FF0600D0FFB9FFA6FF96FF8AFF83FF80007F0020
:10FF16007D007A00760070006A0062005A00510087
:10FF260047003C003000250018000C000000F4FFDC
:10FF3600E8FFDBFFD0FFC4FFB9FFAFFFA6FF9EFFC0
:10FF460096FF90FF8AFF86FF83FF81FF0000000077
:10FF5600000080FF0000A6FF80FFA6FF0000D0FF84
:10FF6600A6FF8AFF80FF8AFFA6FFD0FF0000E8FFFA
:10FF7600D0FFB9FFA6FF96FF8AFF83FF80FF83FFAE
:10FF86008AFF96FFA6FFB9FFD0FFE8FF0000F4FF47
:10FF9600E8FFDBFFD0FFC4FFB9FFAFFFA6FF9EFF60
:10FFA60096FF90FF8AFF86FF83FF81FF80FF81FF18
:10FFB60083FF86FF8AFF90FF96FF9EFFA6FFAFFF97
:10FFC600B9FFC4FFD0FFDBFFE8FFF4FF0000F44AEF
:10FFD600489595C7C1DC45DC6DC3B3334034014851
:10FFE6009DB04500DA4200803F01000A006400E847
:0AFFF60003102725640A0D00000027
:020000040030CA
:0C000000FF32F8FEFF79BBFFFFFFFFFF9F
:00000001FF
